:020000040800F2
:10000000B80A002089010008E5010008E5010008A0
:10001000E5010008E5010008E50100080000000016
:10002000000000000000000000000000E5010008E2
:10003000E501000800000000E5010008E5010008F6
:10004000E5010008E5010008E5010008E5010008F8
:10005000E5010008E5010008E5010008E5010008E8
:10006000E5010008E5010008E5010008E5010008D8
:10007000E5010008E5010008E5010008E5010008C8
:10008000E5010008E5010008E5010008E5010008B8
:10009000E5010008E5010008E5010008E5010008A8
:1000A000E5010008E5010008E5010008E501000898
:1000B00095030008ED010008E5010008E5010008CE
:1000C000E5010008E5010008E5010008E501000878
:1000D000E5010008E5010008E5010008E501000868
:1000E000E5010008E5010008E5010008E501000858
:1000F000E5010008E5010008E5010008E501000848
:10010000E5010008E5010008E5010008E501000837
:10011000E5010008E5010008E5010008E501000827
:10012000E5010008E5010008E5010008E501000817
:10013000E5010008E5010008E5010008E501000807
:10014000E5010008E5010008E5010008E5010008F7
:10015000E5010008E5010008E5010008E5010008E7
:10016000E5010008E5010008E5010008E5010008D7
:10017000E5010008E5010008E5010008E5010008C7
:10018000E5010008E501000880B582B000AF104B22
:100190007B60104B3B6007E07A68131D7B603B6817
:1001A000191D396012681A603B680B4A9342F3D3F9
:1001B0000A480B494FF000028842B8BF40F8042BB0
:1001C000FADB00F027F900BF0837BD4680BD00BF4D
:1001D000082200080000002000000020000000208D
:1001E000B402002080B400AFFEE7000080B582B00A
:1001F00000AF0121644801F02BFB0346002B00F007
:10020000B980624800F07EFA00237B6002E07B68E0
:1002100001337B607B6840F6FE729342F7DD5B4BF7
:10022000B3F9003013F1C80F23DA584BB3F900309B
:1002300083EAE372A2EBE372544BB3F90230002B72
:10024000B8BF5B429A4214DD504BB3F9003083EAE9
:10025000E372A2EBE3724D4BB3F90230002BB8BF4F
:100260005B429A420ADD4FF40041494800F0A1FF89
:1002700004E04FF40041464800F0A9FF434BB3F9B6
:100280000030C82B23DD414BB3F9003083EAE37221
:10029000A2EBE3723D4BB3F90230002BB8BF5B42D7
:1002A0009A4214DD394BB3F9003083EAE372A2EBD2
:1002B000E372364BB3F90230002BB8BF5B429A426F
:1002C0000ADD4FF40051324800F073FF04E04FF4B0
:1002D00000512F4800F07BFF2C4BB3F9023013F193
:1002E000C80F14DA294BB3F9023083EAE372A2EBA8
:1002F000E372264BB3F90030002BB8BF5B429A4241
:1003000005DD4FF48051224800F053FF04E04FF424
:1003100080511F4800F05BFF1C4BB3F90230C82B23
:1003200023DD1A4BB3F9023083EAE372A2EBE372E6
:10033000164BB3F90030002BB8BF5B429A4214DD74
:10034000124BB3F9023083EAE372A2EBE3720F4B74
:10035000B3F90030002BB8BF5B429A420ADD4FF47C
:1003600080410B4800F025FF04E04FF4804108482D
:1003700000F02DFF01F0DCFB0121034801F091FAB0
:1003800000BF0837BD4680BD00040040AC0000201F
:10039000000C024080B582B000AF01214FF08040D8
:1003A00001F056FA0346002B2DD000233B6020E0DD
:1003B00000237B6017E07B68DBB23A68D2B211465B
:1003C000184601F085FC12497A6813469B001344D5
:1003D0003A68134451F82330012B01D101F0DAFBC4
:1003E0007B6801337B607B681D2BE4DD3B68013358
:1003F0003B603B68132BDBDD01F0CCFB01214FF0B0
:10040000804001F04EFA00BF0837BD4680BD00BFF6
:100410002000002080B58AB000AF00F0E7FE4FF466
:10042000C06000F0F3FF0121012000F0A1F80121DC
:100430004FF4804000F0BAF80121022000F098F853
:10044000D1233B62F923BB830023BB840023FB83BE
:1004500007F11C0319464FF0804001F04DF940F2BE
:1004600047337B6140F2F3133B8200233B8300233D
:100470007B8207F1100319462C4801F03DF9012158
:100480004FF0804001F0A2F90121284801F09EF9C7
:100490001C233B7300237B730023BB730123FB737B
:1004A00007F10C03184600F0C3FF01214FF0804014
:1004B00001F0F7F9012201214FF0804001F0A5F988
:1004C0001D233B7200237B720023BB720123FB724E
:1004D00007F10803184600F0ABFF0121134801F0B3
:1004E000E0F901220121114801F08FF904210520D2
:1004F00000F0D8F80121082000F01CF84FF47043F8
:100500003B604FF6FF733B6001233B710023BB71DF
:100510000023FB7102237B713B461946044800F01F
:10052000BBFD382001F0A7FAFEE700BF0004004041
:10053000000C024080B483B000AF78600B46FB70C3
:10054000FB78002B06D0094B1A6B08497B681343D4
:100550000B6306E0054B1A6B7B68DB4303491340D2
:100560000B6300BF0C37BD4680BC704700380240AB
:1005700080B483B000AF78600B46FB70FB78002B33
:1005800006D0094B1A6C08497B6813430B6406E0DC
:10059000054B1A6C7B68DB43034913400B6400BFB7
:1005A0000C37BD4680BC70470038024080B483B031
:1005B00000AF78600B46FB70FB78002B06D0094B30
:1005C0005A6C08497B6813434B6406E0054B5A6C30
:1005D0007B68DB43034913404B6400BF0C37BD46C7
:1005E00080BC70470038024080B483B000AF7860B0
:1005F0000B46FB707B681B889BB203F04003002B0B
:1006000001D1002325E000BF7B681B899BB203F06A
:100610000303002BF8D07B681B899BB203F0800397
:10062000002BF1D1FB789AB27B689A8100BF7B687E
:100630001B899BB203F00303002BF8D07B681B8956
:100640009BB203F08003002BF1D17B689B899BB2A6
:10065000DBB218460C37BD4680BC704780B582B00F
:1006600000AF00F0F5FA00F06BF8FB1D01220F213E
:10067000184600F0C3F8FB793B2B04D1084B01224C
:100680001A70012308E0FB793F2B04D1044B0222AE
:100690001A70022300E0002318460837BD4680BDCB
:1006A0000000002080B582B000AF03460A46FB710F
:1006B0001346BB7100F044F800F0CAFAFFF7CEFF12
:1006C0000346012B07D1BA79FB791146184600F091
:1006D00045F9012310E0FFF7C1FF0346022B07D1C4
:1006E000BA79FB791146184600F0B4F8022303E00A
:1006F000034B00221A70002318460837BD4680BD00
:100700000000002080B582B000AF78600B4B1B78F2
:10071000012B04D1786800F02FFA012309E0074B80
:100720001B78022B04D1786800F096F9022300E0D0
:10073000002318460837BD4680BD00BF00000020DA
:1007400080B582B000AF134B1B78002B1DD1002168
:10075000114800F08FFA01211020FFF7EBFE08236B
:100760003B6001233B710023BB710123FB7101231B
:100770007B713B461946094800F08EFC074B082266
:100780001A83044B01221A7000E000BF0837BD46EF
:1007900080BD00BF01000020003001400010024079
:1007A00080B582B000AF78600B46FB701346BB701B
:1007B0000F4B08225A83BB78012B07D90D4B1B78AE
:1007C000012B03D1FB7843F04003FB70FB78194603
:1007D0000948FFF709FFBB781A467968064800F018
:1007E00087FA034B08221A8300BF0837BD4680BD35
:1007F00000100240000000200030014080B582B0AF
:1008000000AF78600B46FB701346BB700F4B08229D
:100810005A83FB7863F07F03FB70BB78012B03D90D
:10082000FB7843F04003FB70FB7819460848FFF75C
:10083000DBFEBB7800227968054800F09DFA034B87
:1008400008221A8300BF0837BD4680BD0010024051
:100850000030014080B584B000AF03460A46FB710A
:100860001346BB716723FB81FB79002B03D1354B0A
:10087000354A1A602AE0FB79012B07D1FB8943F046
:100880000803FB812F4B314A1A601FE0FB79022BD2
:1008900007D1FB8943F01003FB812A4B2C4A1A60D5
:1008A00014E0FB79032B07D1FB8943F01803FB818C
:1008B000244B284A1A6009E0FB79042B3BD1FB89C1
:1008C00043F02003FB811F4B234A1A60BB79002BA6
:1008D0001AD0BB79012B04D1FB8943F48043FB81FF
:1008E00012E0BB79022B06D1FB896FEA43436FEA22
:1008F0005343FB8108E0BB79032B1ED1FB896FEAD0
:1009000083436FEA9343FB81FB89DBB27B7307F17F
:100910000D03012220211846FFF742FFFB891B0A25
:100920009BB2DBB27B7307F10D0301222421184631
:10093000FFF736FF02E000BF00E000BF1037BD4602
:1009400080BD00BFB40000208FC2753D8FC2F53D51
:10095000EC51383E8FC2753E48E13A3F80B584B0D5
:1009600000AF03460A46FB711346BB7107F10E0345
:10097000012221211846FFF741FFFB8943F0400384
:100980009BB2FB8107F10E03012221211846FFF7DC
:1009900007FF4723FB81FB79052B05D1FB89FB81F1
:1009A0002A4B2B4A1A600AE0FB79062B47D1FB89B8
:1009B00043F020039BB2FB81244B264A1A6007F1C7
:1009C0000E03012220211846FFF7EAFE07F10E036D
:1009D000012221211846FFF7E3FEFB8903F0D00333
:1009E0009BB2FB81FB8943F02C039BB2FB81BB795B
:1009F000042B02D1FB89FB8119E0BB79052B05D1C2
:100A0000FB8943F001039BB2FB8110E0BB79062B0D
:100A100005D1FB8943F002039BB2FB8107E0BB7960
:100A2000072B0ED1FB8943F003039BB2FB8107F137
:100A30000E03012221211846FFF7B2FE02E000BF9B
:100A400000E000BF1037BD4680BD00BFB4000020ED
:100A5000000090410000904280B584B000AF786003
:100A600007F10803012228211846FFF7C7FE07F106
:100A700008030133012229211846FFF7BFFE07F1C1
:100A80000803023301222A211846FFF7B7FE07F1B7
:100A90000803033301222B211846FFF7AFFE07F1AD
:100AA0000803043301222C211846FFF7A7FE07F1A3
:100AB0000803053301222D211846FFF79FFE97F901
:100AC00009309BB21B029AB297F908309BB21344CB
:100AD0009BB21BB2184601F0CDF90246254B1B68AC
:100AE0001946104601F01AFA0346184601F066FB53
:100AF00003461AB27B681A8097F90B309BB21B022F
:100B00009AB297F90A309BB213449BB21BB21846B3
:100B100001F0B0F90246174B1B681946104601F068
:100B2000FDF90346184601F049FB03461AB27B68FB
:100B30005A8097F90D309BB21B029AB297F90C308C
:100B40009BB213449BB21BB2184601F093F90246C4
:100B5000084B1B681946104601F0E0F90346184699
:100B600001F02CFB03461AB27B689A8000BF103755
:100B7000BD4680BDB400002080B584B000AF786071
:100B800007F10803012229211846FFF737FE07F174
:100B90000803013301222B211846FFF72FFE07F12E
:100BA0000803023301222D211846FFF727FE97F98B
:100BB0000830184601F05EF90246244B1B681946BE
:100BC000104601F0ABF90346184601F0F7FA034668
:100BD0001AB27B681A8097F90930184601F04AF971
:100BE00002461A4B1B681946104601F097F9034656
:100BF000184601F0E3FA03461AB27B685A8097F967
:100C00000A30184601F036F90246104B1B681946A7
:100C1000104601F083F90346184601F0CFFA034667
:100C20001AB27B689A807B681B88FB817B68B3F96A
:100C300002207B681A80FB895B429BB21AB27B68F8
:100C40001A8000BF1037BD4680BD00BFB400002031
:100C500080B483B000AF064B7B6000BF7B685A1E38
:100C60007A60002BFAD100BF0C37BD4680BC7047BC
:100C700040420F0080B584B002AF78600B46FB7035
:100C80007B68184A93420AD1F978002301934FF404
:100C90008273009320230022124800F0C1F87B6881
:100CA000114A93420AD1F978002301934FF48273D9
:100CB0000093202300220C4800F0B2F87B680B4A16
:100CC00093420AD1F978002301934FF48273009381
:100CD00020230022054800F0A3F800BF0837BD46D6
:100CE00080BD00BF0030014000380040003C0040A3
:100CF00080B487B000AFF860B9607A60FB681B8889
:100D00009BB203F04003002B31D000BFFB681B896E
:100D10009BB203F00303002BF8D0FB681B899BB246
:100D200003F08003002BF1D100237B611AE0BA6845
:100D30007B6913441B789AB2FB689A8100BFFB68F9
:100D40001B899BB203F00303002BF8D0FB681B89BF
:100D50009BB203F08003002BF1D1FB689B897B6978
:100D600001337B617A697B689A42E0D300E000BF7F
:100D70001C37BD4680BC704780B487B000AFF860B8
:100D8000B9603B601346FB71FB681B889BB203F0A4
:100D90004003002B34D000BFFB681B899BB203F0DB
:100DA0000303002BF8D0FB681B899BB203F0800380
:100DB000002BF1D100237B611DE0FB799AB2FB6827
:100DC0009A8100BFFB681B899BB203F00303002BD1
:100DD000F8D0FB681B899BB203F08003002BF1D194
:100DE000FB689B8999B2BA687B691344CAB21A70CE
:100DF0007B6901337B617A693B689A42DDD300E00D
:100E000000BF1C37BD4680BC704780B483B000AFC4
:100E100078600B467B8000BF0C37BD4680BC7047B6
:100E200080B588B000AF7860084611461A46034680
:100E3000FB700B46BB7013463B8007F10C03184652
:100E400000F0BFFA7B68394A93420BD1384B5B6C98
:100E5000374A43F480535364FB78184600F06EF829
:100E600000233B827B68334A93420BD1304B1B6C8F
:100E70002F4A43F480431364FB78184600F08EF841
:100E800000233B827B682C4A93420BD1284B1B6C7E
:100E9000274A43F400431364FB78184600F0CAF86D
:100EA00000233B823B883B830023BB81BB8D7B833C
:100EB0003B8DFB814FF40073FB82BB78002B04D188
:100EC00000237B820023BB8216E0BB78012B04D178
:100ED00000237B820123BB820EE0BB78022B04D16E
:100EE00002237B820023BB8206E0BB78032B03D165
:100EF00002237B820123BB827B681B889BB223F089
:100F000040039AB27B681A8007F10C03194678688F
:100F100000F014FA7B681B889BB243F040039AB23E
:100F20007B681A8000BF2037BD4680BD003001407D
:100F30000038024000380040003C004080B584B0DA
:100F400002AF0346FB71FB79002B09D10523019306
:100F50000323009300230022E0210D4800F0CAFA89
:100F6000FB79012B09D1052301930323009300236F
:100F700000223821074800F0BDFAFB79032B03D18A
:100F800005210548FFF741FF00BF0837BD4680BD7A
:100F900000000240000402400030014080B584B0EF
:100FA00002AF0346FB71FB79002B14D1052301939B
:100FB00003230093002300224FF48061194800F0BE
:100FC00099FA0523019303230093002300220C21A7
:100FD000154800F08FFAFB79012B0AD10523019304
:100FE00003230093002300224FF460410D4800F0DA
:100FF00081FAFB79022B09D1052301930323009386
:10100000002300220D21094800F074FAFB79032B1C
:1010100003D105210648FFF7F8FE00BF0837BD469B
:1010200080BD00BF000402400008024000200240D2
:101030000038004080B584B002AF0346FB71FB79F5
:10104000002B09D1062301930323009300230022E0
:1010500038210E4800F04EFAFB79012B0AD1062305
:10106000019303230093002300224FF4E05108482A
:1010700000F040FAFB79032B03D106210548FFF766
:10108000C4FE00BF0837BD4680BD00BF000402405B
:1010900000080240003C004080B487B000AF786098
:1010A000396000237B6100233B610023FB60002348
:1010B0007B6176E001227B6902FA03F33B613B68C6
:1010C0001B683A691340FB60FA683B699A4265D134
:1010D0007B681A687B695B00032101FA03F3DB4339
:1010E0001A407B681A607B681A683B681B7919464E
:1010F0007B695B0001FA03F31A437B681A603B6863
:101100001B79012B03D03B681B79022B2ED17B6806
:101110009A687B695B00032101FA03F3DB431A4001
:101120007B689A607B689A683B685B7919467B6943
:101130005B0001FA03F31A437B689A607B685A6884
:101140007B699BB2194601238B40DB431A407B68C5
:101150005A607B685B683A68927911467A6992B204
:1011600001FA02F292B21A437B685A607B68DA682D
:101170007B699BB25B00032101FA03F3DB431A4056
:101180007B68DA607B68DA683B68DB7919467B69E3
:101190005B0001FA03F31A437B68DA607B69013371
:1011A0007B617B690F2B85D900BF1C37BD4680BC96
:1011B000704780B483B000AF78600B467B807B685B
:1011C0007A881A8300BF0C37BD4680BC704780B454
:1011D00083B000AF78600B467B807B687A885A8347
:1011E00000BF0C37BD4680BC7047000080B500AF23
:1011F000124B1B68114A43F0010313600F4B00228E
:101200009A600E4B1B680D4A23F0847323F48033DD
:1012100013600A4B0A4A5A60084B1B68074A23F4BA
:1012200080231360054B0022DA6000F00DF8054BB7
:101230004FF000629A6000BF80BD00BF00380240DE
:101240001030002400ED00E080B483B000AF002334
:101250007B6000233B60354B1B68344A43F480338A
:101260001360324B1B6803F400333B607B6801332F
:101270007B603B68002B03D17B68B3F5A06FF0D196
:101280002A4B1B6803F40033002B02D001233B6080
:1012900001E000233B603B68012B42D1234B1B6CD8
:1012A000224A43F080531364214B1B68204A43F4C5
:1012B000804313601D4B1D4A9B6893601B4B9B68CA
:1012C0001A4A43F400439360184B9B68174A43F44F
:1012D000A0539360154B174A5A60144B1B68134A6E
:1012E00043F08073136000BF104B1B6803F0007362
:1012F000002BF9D0104B40F205621A600B4B9B6833
:101300000A4A23F003039360084B9B68074A43F0A3
:101310000203936000BF054B9B6803F00C03082B8E
:10132000F9D100BF0C37BD4680BC70470038024081
:101330000070004019544007003C024080B485B062
:1013400000AF786039600023FB817B681B88FB81DC
:10135000FB8903F44153FB813B681A883B685B8837
:1013600013439AB23B689B8813439AB23B68DB886D
:1013700013439AB23B681B8913439AB23B685B895B
:1013800013439AB23B689B8913439AB23B68DB894B
:1013900013439AB2FB891343FB817B68FA891A8055
:1013A0007B689B8B9BB223F400639AB27B689A8321
:1013B0003B681A8A7B681A8200BF1437BD4680BC1E
:1013C000704780B483B000AF78607B6800221A80D9
:1013D0007B6800225A807B6800229A807B6800220A
:1013E000DA807B6800221A817B6800225A817B6840
:1013F00000229A817B680022DA817B6807221A82A8
:1014000000BF0C37BD4680BC7047000080B483B07D
:1014100000AF7860054A7B6843F0BF6343F4003354
:10142000D36000BF0C37BD4680BC704700ED00E0C4
:1014300080B485B000AF78600023FB730023BB73DA
:101440000F237B737B68DB78002B39D0274BDB685D
:10145000DB431B0ADBB203F00703FB73FB7BC3F127
:101460000403BB737A7BFB7B42FA03F37B737B68D9
:101470005B781A46BB7B02FA03F3FB737B689A78AE
:101480007B7B1340DAB2FB7B1343FB73FB7B1B01BB
:10149000FB73174A7B681B781344FA7B83F800239D
:1014A0007B681B7803F01F0311497A681278520990
:1014B000D2B21046012202FA03F341F820300FE0C5
:1014C0007B681B7803F01F0309497A681278520978
:1014D000D2B2104601229A4000F1200341F82320A5
:1014E00000BF1437BD4680BC704700BF00ED00E070
:1014F00000E100E080B586B002AF78600846114692
:101500001A4603467B800B467B7013463B707B88F4
:10151000002B3FD0786800F051F80023FB602AE0F0
:101520007A88FB6842FA03F303F00103002B1ED014
:10153000FB68DA087B68083253F82230FA6802F058
:10154000070292000F2101FA02F2D2431340397FC1
:10155000FA6802F00702920001FA02F21146FA68F4
:10156000D20819437B68083243F8221000E000BF1C
:10157000FB680133FB60FB680F2BD1D97A7879883F
:101580003B7E01933B78009313460222786800F07B
:101590002DF800E000BF1037BD4680BD80B483B099
:1015A00000AF78607B6803F13F4303F57E039B0A3D
:1015B0009BB218460C37BD4680BC704780B582B0E0
:1015C00000AF78607868FFF7E9FF03461A46012309
:1015D00003FA02F2044B1B6B1146034A0B431363DD
:1015E00000BF0837BD4680BD0038024080B584B0DA
:1015F00000AF7860084611461A4603467B800B46CA
:101600007B7013463B707868FFF7C8FF0346BB73D7
:101610000023FB7367E07A88FB7B42FA03F303F055
:101620000103002B5BD0BB7B324A32F813301AB275
:10163000FB7B012101FA03F31BB213431AB2BB7BFC
:1016400091B22C4A22F813107B68DB68FA7B5200B7
:10165000032101FA02F2D2431340397EFA7B520091
:1016600001FA02F21A437B68DA607B681A68FB7B36
:101670005B00032101FA03F3DB4313407978FA7B23
:10168000520001FA02F21A437B681A607B78012B40
:1016900002D07B78022B23D17B685B68FA7B012127
:1016A00001FA02F292B2D24313403978FA7B01FA7E
:1016B00002F292B21A437B685A607B689A68FB7B9D
:1016C0005B00032101FA03F3DB431340397FFA7B0C
:1016D000520001FA02F21A437B689A6000E000BFF0
:1016E000FB7B0133FB73FB7B0F2B94D900BF1037BF
:1016F000BD4680BD0400002080B485B000AF786096
:1017000039600023FB817B681B88FB817B68284A4A
:10171000934213D07B68274A93420FD07B68B3F182
:10172000804F0BD07B68244A934207D07B68234AC2
:10173000934203D07B68224A934208D1FB8923F06D
:101740007003FB813B685A88FB891343FB817B68EC
:101750001C4A93420CD07B681B4A934208D0FB89F9
:1017600023F44073FB813B681A89FB891343FB8197
:101770007B68FA891A803B685A687B68DA623B6842
:101780001A887B681A857B68094A934203D07B6874
:10179000084A934204D13B689B7A9AB27B681A86C6
:1017A0007B6801229A8200BF1437BD4680BC704717
:1017B0000000014000040140000400400008004017
:1017C000000C0040001000400014004080B483B0C2
:1017D00000AF78600B46FB70FB78002B08D07B686D
:1017E0001B889BB243F001039AB27B681A8007E022
:1017F0007B681B889BB223F001039AB27B681A8036
:1018000000BF0C37BD4680BC704780B483B000AFCA
:1018100078600B467B8013467B707B78002B08D06A
:101820007B689B899AB27B8813439AB27B689A81C2
:1018300009E07B689B899AB27B88DB439BB21340AB
:101840009AB27B689A8100BF0C37BD4680BC704756
:1018500080B485B000AF78600B467B800023FB73BB
:101860000023BB8100237B817B681B8A9AB27B8823
:101870001340BB817B689B899AB27B8813407B8134
:10188000BB89002B05D07B89002B02D00123FB7381
:1018900001E00023FB73FB7B18461437BD4680BC78
:1018A000704780B483B000AF78600B467B807B8844
:1018B000DB439AB27B681A8200BF0C37BD4680BCFE
:1018C000704780B483B000AF78600B46FB707B68D4
:1018D0001B889BB203F04003002B01D1002325E0BD
:1018E00000BF7B681B899BB203F00303002BF8D079
:1018F0007B681B899BB203F08003002BF1D1FB783E
:101900009AB27B689A8100BF7B681B899BB203F007
:101910000303002BF8D07B681B899BB203F0800384
:10192000002BF1D17B689B899BB2DBB218460C3748
:10193000BD4680BC7047000080B582B000AF012179
:101940000420FEF7F7FD0023BB710023FB71032386
:101950007B7101233B714FF400433B603B461946CA
:101960001248FFF799FB4FF480433B603B46194612
:101970000E48FFF791FB4FF400533B603B4619467E
:101980000A48FFF789FB4FF400410848FFF711FCB4
:101990004FF400510548FFF70CFC00210448FFF705
:1019A00069F900BF0837BD4680BD00BF000802408E
:1019B0000038004080B582B000AF0346FB714FF4A1
:1019C00000510848FFF703FCFB7919460648FFF76A
:1019D00078FF4FF400510348FFF7EBFB00BF0837D7
:1019E000BD4680BD000802400038004080B582B08E
:1019F00000AF03460A46FB711346BB71FB79012B0E
:101A000002D0022B0FD01DE0BB79002B05D04FF484
:101A100080410E48FFF7CDFB14E04FF480410B48A6
:101A2000FFF7D5FB0EE0BB79002B05D04FF400414A
:101A30000648FFF7BEFB04E04FF400410348FFF700
:101A4000C6FB00BF00BF0837BD4680BD000802408E
:101A500080B485B000AF78600023FB6002E0FB68D3
:101A60000133FB60FB687A689A42F8D800BF1437EC
:101A7000BD4680BC704780B582B000AF0346FB71A5
:101A8000FFF75AFF00210220FFF7B0FF42F210706B
:101A9000FFF7DEFF01210220FFF7A8FF2121002030
:101AA00000F026F81421002000F022F897F9073002
:101AB000002B01DA7F23FB71FB7963F07F03DBB23C
:101AC0001946002000F014F82021002000F010F842
:101AD0000C21002000F00CF800F050F80C21002040
:101AE00000F006F800F024F800BF0837BD4680BDBE
:101AF00080B582B000AF03460A46FB711346BB7146
:101B0000FB79002B07D0012B00D009E00121012037
:101B1000FFF76CFF04E000210120FFF767FF00BF23
:101B2000BB791846FFF746FF00BF0837BD4680BDAA
:101B300080B582B000AF00F021F800237B6007E0A1
:101B40000D4A7B68134400221A707B6801337B6066
:101B50007B68B3F5FC7FF3D30021002000F0B8F8D8
:101B60002F2353220021002000F076F800F012F815
:101B700000BF0837BD4680BDBC00002080B500AF67
:101B800080210020FFF7B4FF40210020FFF7B0FFC5
:101B900000BF80BD80B582B000AF0023FB713BE089
:101BA000284B1B781A46FB790133DB009A422FDC65
:101BB000FB79DB00244A1278934231DCFB7943F055
:101BC0004003DBB219460020FFF792FF1F4B1B7842
:101BD00063F07F03DBB219460020FFF789FF1B4B40
:101BE0001B78BB710EE0FB79542202FB03F2BB7938
:101BF0001344174AD35C19460120FFF779FFBB79DC
:101C00000133BB71134B1B78BA799A42EBD900E0D0
:101C100000BFFB790133FB71FB79052BC0D900E0D4
:101C200000BF0A4B53221A700A4B00221A70054B50
:101C30002F221A70044B00221A7000BF0837BD46CD
:101C400080BD00BF1C0000201D0000201A000020E5
:101C5000BC0000201B00002090B482B000AF0446FE
:101C6000084611461A462346FB710346BB710B46D4
:101C70007B7113463B71124B1B78FA799A4202D260
:101C80000F4AFB7913700F4B1B787A799A4202D96D
:101C90000C4A7B7913700C4B1B78BA799A4202D2AA
:101CA000094ABB791370094B1B783A799A4202D9D9
:101CB000064A3B79137000BF0837BD4690BC704799
:101CC0001A0000201B0000201C0000201D00002026
:101CD00080B483B000AF03460A46FB711346BB7164
:101CE000054AFB791370054ABB79137000BF0C37A6
:101CF000BD4680BC704700BFB9000020B80000207E
:101D000080F0004002E000BF81F0004142001FBFB0
:101D10005FEA410392EA030F7FEA226C7FEA236CB9
:101D20006AD04FEA1262D2EB1363C1BFD2184140AE
:101D300048404140B8BF5B42192B88BF704710F044
:101D4000004F40F4000020F07F4018BF404211F0E7
:101D5000004F41F4000121F07F4118BF494292EA4F
:101D6000030F3FD0A2F1010241FA03FC10EB0C007B
:101D7000C3F1200301FA03F100F0004302D5494208
:101D800060EB4000B0F5000F13D3B0F1807F06D3B5
:101D900040084FEA310102F10102FE2A51D2B1F1AD
:101DA000004F40EBC25008BF20F0010040EA0300A2
:101DB0007047490040EB000010F4000FA2F101024F
:101DC000EDD1B0FA80FCACF1080CB2EB0C0200FAD9
:101DD0000CF0AABF00EBC25052421843BCBFD04027
:101DE0001843704792F0000F81F4000106BF80F4A1
:101DF00000000132013BB5E74FEA41037FEA226C64
:101E000018BF7FEA236C21D092EA030F04D092F02E
:101E1000000F08BF0846704790EA010F1CBF002062
:101E2000704712F07F4F04D1400028BF40F00040BF
:101E3000704712F100723CBF00F50000704700F0DF
:101E4000004343F0FE4040F4000070477FEA226206
:101E500016BF08467FEA23630146420206BF5FEAD7
:101E6000412390EA010F40F4800070474FF00003D7
:101E700004E000BF10F0004348BF40425FEA000C9E
:101E800008BF704743F0964301464FF000001CE046
:101E900050EA010208BF70474FF000030AE000BF9C
:101EA00050EA010208BF704711F0004302D54042DA
:101EB00061EB41015FEA010C02BF8446014600204C
:101EC00043F0B64308BFA3F18053A3F50003BCFA67
:101ED0008CF2083AA3EBC25310DB01FA02FC634414
:101EE00000FA02FCC2F12002BCF1004F20FA02F21B
:101EF00043EB020008BF20F00100704702F120020E
:101F000001FA02FCC2F1200250EA4C0021FA02F26E
:101F100043EB020008BF20EADC7070474FF0FF0C73
:101F20001CEAD0521EBF1CEAD15392EA0C0F93EA6E
:101F30000C0F6FD01A4480EA010C400218BF5FEA10
:101F400041211ED04FF0006343EA501043EA511183
:101F5000A0FB01310CF00040B1F5000F3EBF49007D
:101F600041EAD3715B0040EA010062F17F02FD2A81
:101F70001DD8B3F1004F40EBC25008BF20F0010064
:101F8000704790F0000F0CF0004C08BF49024CEA7B
:101F9000502040EA51207F3AC2BFD2F1FF0340EA0D
:101FA000C250704740F400004FF00003013A5DDC7E
:101FB00012F1190FDCBF00F000407047C2F10002BF
:101FC000410021FA02F1C2F1200200FA02FC5FEAAC
:101FD000310040F1000053EA4C0308BF20EADC70F6
:101FE000704792F0000F00F0004C02BF400010F468
:101FF000000F013AF9D040EA0C0093F0000F01F015
:10200000004C02BF490011F4000F013BF9D041EA36
:102010000C018FE70CEAD15392EA0C0F18BF93EA38
:102020000C0F0AD030F0004C18BF31F0004CD8D162
:1020300080EA010000F00040704790F0000F17BFE9
:1020400090F0004F084691F0000F91F0004F14D02F
:1020500092EA0C0F01D142020FD193EA0C0F03D187
:102060004B0218BF084608D180EA010000F000408A
:1020700040F0FE4040F40000704740F0FE4040F465
:10208000400070474FF0FF0C1CEAD0521EBF1CEA04
:10209000D15392EA0C0F93EA0C0F69D0A2EB030222
:1020A00080EA010C49024FEA402037D04FF08053BC
:1020B00043EA111143EA10130CF000408B4238BF81
:1020C0005B0042F17D024FF4000C8B4224BF5B1A8F
:1020D00040EA0C00B3EB510F24BFA3EB510340EADD
:1020E0005C00B3EB910F24BFA3EB910340EA9C008B
:1020F000B3EBD10F24BFA3EBD10340EADC001B01FB
:1021000018BF5FEA1C1CE0D1FD2A3FF650AF8B429E
:1021100040EBC25008BF20F0010070470CF0004CAB
:102120004CEA50207F32C2BFD2F1FF0340EAC250D6
:10213000704740F400004FF00003013A37E792F097
:10214000000F00F0004C02BF400010F4000F013AF5
:10215000F9D040EA0C0093F0000F01F0004C02BFF0
:10216000490011F4000F013BF9D041EA0C0195E759
:102170000CEAD15392EA0C0F08D142027FF47DAFF2
:1021800093EA0C0F7FF470AF084676E793EA0C0FE2
:1021900004D14B023FF44CAF08466EE730F0004CE0
:1021A00018BF31F0004CCAD130F000427FF45CAF70
:1021B00031F000437FF43CAF5FE700BF4FEA4002DD
:1021C000B2F1FE4F0FD34FF09E03B3EB12620DD965
:1021D0004FEA002343F0004310F0004F23FA02F0CF
:1021E00018BF404270474FF00000704712F1610F76
:1021F00001D1420205D110F0004008BF6FF000404D
:0822000070474FF00000704729
:0400000508000000EF
:00000001FF
